{
  "safe": "0x684cf8978c2815716c85eAa237E311f5a44e9e09",
  "to": "0x9641d764fc13c8B624c04430C7356C1C7C8102e2",
  "value": "0",
  "data": "0x8d80ff0a0000000000000000000000000000000000000000000000000000000000000020000000000000000000000000000000000000000000000000000000000000024b0092dd25c0ee0030e3deab4a4c04f91bd7ea368b250000000000000000000000000000000000000000000000000000000000000000000000000000000000000000000000000000000000000000000000000000004499a88ec4000000000000000000000000c38d35fc995e75342a21cbd6d770305b142fbe670000000000000000000000002492844312c83945f0f5c58370b502bdbea6a0f60025e5f8b1e7adf44518d35d5b2271f114e081f0e500000000000000000000000000000000000000000000000000000000000000000000000000000000000000000000000000000000000000000000000000000084950d806e000000000000000000000000c38d35fc995e75342a21cbd6d770305b142fbe67000000000000000000000000b844fb34bc8cda92cce73f9ce9bbbe60ead9cdd4000000000000000000000000c38d35fc995e75342a21cbd6d770305b142fbe67d49fec2b000000000000000000000000000000000000000000000000000000000025e5f8b1e7adf44518d35d5b2271f114e081f0e500000000000000000000000000000000000000000000000000000000000000000000000000000000000000000000000000000000000000000000000000000084950d806e000000000000000000000000c38d35fc995e75342a21cbd6d770305b142fbe67000000000000000000000000b844fb34bc8cda92cce73f9ce9bbbe60ead9cdd4000000000000000000000000c38d35fc995e75342a21cbd6d770305b142fbe67cb1e6ff700000000000000000000000000000000000000000000000000000000000000000000000000000000000000000000000000",
  "operation": 1,
  "gasToken": "0x0000000000000000000000000000000000000000",
  "safeTxGas": "0",
  "baseGas": "0",
  "gasPrice": "0",
  "refundReceiver": "0x0000000000000000000000000000000000000000",
  "nonce": "5",
  "executionDate": "2025-10-29T21:20:11Z",
  "submissionDate": "2025-10-29T20:42:51.651256Z",
  "modified": "2025-10-29T21:20:21.013991Z",
  "blockNumber": 23685691,
  "transactionHash": "0xd18d2b9f8e247651dcf8c04cc3c573034a3c8cd835f42ae3f3c046bdf6ffe9f6",
  "safeTxHash": "0x919edffad57d3ffbab12d71569cd6dfa58763d5a98487f2bbf2b97d285e19f53",
  "proposer": "0x87F2e561A2E17C3C52F390aFCa9940316407785D",
  "proposedByDelegate": null,
  "executor": "0xa0c118bb5ceC4c28d5cdB0b2f897c9634c988BDb",
  "isExecuted": true,
  "isSuccessful": true,
  "ethGasPrice": "373066680",
  "maxFeePerGas": "393209918",
  "maxPriorityFeePerGas": "79000000",
  "gasUsed": 345626,
  "fee": "128941544341680",
  "origin": "{}",
  "dataDecoded": {
    "method": "multiSend",
    "parameters": [
      {
        "name": "transactions",
        "type": "bytes",
        "value": "0x0092dd25c0ee0030e3deab4a4c04f91bd7ea368b250000000000000000000000000000000000000000000000000000000000000000000000000000000000000000000000000000000000000000000000000000004499a88ec4000000000000000000000000c38d35fc995e75342a21cbd6d770305b142fbe670000000000000000000000002492844312c83945f0f5c58370b502bdbea6a0f60025e5f8b1e7adf44518d35d5b2271f114e081f0e500000000000000000000000000000000000000000000000000000000000000000000000000000000000000000000000000000000000000000000000000000084950d806e000000000000000000000000c38d35fc995e75342a21cbd6d770305b142fbe67000000000000000000000000b844fb34bc8cda92cce73f9ce9bbbe60ead9cdd4000000000000000000000000c38d35fc995e75342a21cbd6d770305b142fbe67d49fec2b000000000000000000000000000000000000000000000000000000000025e5f8b1e7adf44518d35d5b2271f114e081f0e500000000000000000000000000000000000000000000000000000000000000000000000000000000000000000000000000000000000000000000000000000084950d806e000000000000000000000000c38d35fc995e75342a21cbd6d770305b142fbe67000000000000000000000000b844fb34bc8cda92cce73f9ce9bbbe60ead9cdd4000000000000000000000000c38d35fc995e75342a21cbd6d770305b142fbe67cb1e6ff700000000000000000000000000000000000000000000000000000000",
        "valueDecoded": [
          {
            "operation": 0,
            "to": "0x92dd25C0EE0030e3deaB4a4C04f91bd7Ea368B25",
            "value": "0",
            "data": "0x99a88ec4000000000000000000000000c38d35fc995e75342a21cbd6d770305b142fbe670000000000000000000000002492844312c83945f0f5c58370b502bdbea6a0f6",
            "dataDecoded": {
              "method": "upgrade",
              "parameters": [
                {
                  "name": "proxy",
                  "type": "address",
                  "value": "0xc38d35Fc995e75342A21CBd6D770305b142Fbe67"
                },
                {
                  "name": "implementation",
                  "type": "address",
                  "value": "0x2492844312C83945F0f5C58370B502bDbEA6a0f6"
                }
              ]
            }
          },
          {
            "operation": 0,
            "to": "0x25E5F8B1E7aDf44518d35D5B2271f114e081f0E5",
            "value": "0",
            "data": "0x950d806e000000000000000000000000c38d35fc995e75342a21cbd6d770305b142fbe67000000000000000000000000b844fb34bc8cda92cce73f9ce9bbbe60ead9cdd4000000000000000000000000c38d35fc995e75342a21cbd6d770305b142fbe67d49fec2b00000000000000000000000000000000000000000000000000000000",
            "dataDecoded": null
          },
          {
            "operation": 0,
            "to": "0x25E5F8B1E7aDf44518d35D5B2271f114e081f0E5",
            "value": "0",
            "data": "0x950d806e000000000000000000000000c38d35fc995e75342a21cbd6d770305b142fbe67000000000000000000000000b844fb34bc8cda92cce73f9ce9bbbe60ead9cdd4000000000000000000000000c38d35fc995e75342a21cbd6d770305b142fbe67cb1e6ff700000000000000000000000000000000000000000000000000000000",
            "dataDecoded": null
          }
        ]
      }
    ]
  },
  "confirmationsRequired": 3,
  "confirmations": [
    {
      "owner": "0x87F2e561A2E17C3C52F390aFCa9940316407785D",
      "submissionDate": "2025-10-29T20:42:51.717598Z",
      "transactionHash": null,
      "signature": "0x9700f441316a4b3ae18948aaec3c7c7e247c228a692c0479e28dfc70d660ee8114998e93fe80581eb41cfc04337174f74ee329e9a3f37a1ed3a7b7338a5d4a461b",
      "signatureType": "EOA"
    },
    {
      "owner": "0xa0c118bb5ceC4c28d5cdB0b2f897c9634c988BDb",
      "submissionDate": "2025-10-29T20:46:43.159627Z",
      "transactionHash": null,
      "signature": "0x77f9c3925bfd27ac4683becdf6ad23742d92629c7795952e1cd239d73c149e86019c2badd295e8572e9c9ede5b036c6b07c7cfc5f50cffbc6798676389b40ecb1b",
      "signatureType": "EOA"
    },
    {
      "owner": "0xc2105CC7aFa412eAf086bF043d4F2F15b40C39C8",
      "submissionDate": "2025-10-29T21:17:15.827387Z",
      "transactionHash": null,
      "signature": "0x81a567e0c1a294a7d07d551ac54a894b410ba6127fb43d267dbbd99065149c4d5fa78fd0e3fdecc741c468feeb1c7545f553b236326331a322e1af9d80bb38d81c",
      "signatureType": "EOA"
    }
  ],
  "trusted": true,
  "signatures": "0x9700f441316a4b3ae18948aaec3c7c7e247c228a692c0479e28dfc70d660ee8114998e93fe80581eb41cfc04337174f74ee329e9a3f37a1ed3a7b7338a5d4a461b77f9c3925bfd27ac4683becdf6ad23742d92629c7795952e1cd239d73c149e86019c2badd295e8572e9c9ede5b036c6b07c7cfc5f50cffbc6798676389b40ecb1b81a567e0c1a294a7d07d551ac54a894b410ba6127fb43d267dbbd99065149c4d5fa78fd0e3fdecc741c468feeb1c7545f553b236326331a322e1af9d80bb38d81c"
}