{
  "safe": "0x6f8459810197cc9fE123BBeB918451757a4fBAc6",
  "to": "0x4FDA8998EC3b7d4b4A612d45FeB8fB36734470f2",
  "value": "0",
  "data": "0x6a76120200000000000000000000000040a2accbd92bca938b02010e17a5b8929b49130d00000000000000000000000000000000000000000000000000000000000000000000000000000000000000000000000000000000000000000000000000000140000000000000000000000000000000000000000000000000000000000000000100000000000000000000000000000000000000000000000000000000000000000000000000000000000000000000000000000000000000000000000000000000000000000000000000000000000000000000000000000000000000000000000000000000000000000000000000000000000000000000000000000000000000000000000000000000000000000000000000000000000000000000000000000000000000000000000000000000000000000000000000000000000000000000026000000000000000000000000000000000000000000000000000000000000000e48d80ff0a00000000000000000000000000000000000000000000000000000000000000200000000000000000000000000000000000000000000000000000000000000099002b67fa2e781b5e43fbf314b72772adca4c78bf690000000000000000000000000000000000000000000000000000000000000000000000000000000000000000000000000000000000000000000000000000004499a88ec40000000000000000000000000dd810a6ffba6a9820a10d97b659f07d8d23d4e200000000000000000000000095c92c951d47bcd5b726e211693ef68d19f67dc0000000000000000000000000000000000000000000000000000000000000000000000000000000000000000000000000000000000000000000000000000000000000410000000000000000000000006f8459810197cc9fe123bbeb918451757a4fbac600000000000000000000000000000000000000000000000000000000000000000100000000000000000000000000000000000000000000000000000000000000",
  "operation": 0,
  "gasToken": "0x0000000000000000000000000000000000000000",
  "safeTxGas": 0,
  "baseGas": 0,
  "gasPrice": "0",
  "refundReceiver": "0x0000000000000000000000000000000000000000",
  "nonce": 5,
  "executionDate": "2025-09-25T21:18:12Z",
  "submissionDate": "2025-09-25T21:16:28.975459Z",
  "modified": "2025-09-25T21:18:16.922439Z",
  "blockNumber": 9279478,
  "transactionHash": "0x41d857e2b10897b44f4f94e0fb6d8a0b62d6dd6b1d06f9a541565fe12db07fb0",
  "safeTxHash": "0x57a7244e2d2aee6836960a77028bc10d83c00033abec67ded2a941c227b25165",
  "proposer": "0xDA29BB71669f46F2a779b4b62f03644A84eE3479",
  "proposedByDelegate": null,
  "executor": "0xDA29BB71669f46F2a779b4b62f03644A84eE3479",
  "isExecuted": true,
  "isSuccessful": true,
  "ethGasPrice": "1000012",
  "maxFeePerGas": "1000024",
  "maxPriorityFeePerGas": "1000000",
  "gasUsed": 100939,
  "fee": "100940211268",
  "origin": "{}",
  "dataDecoded": {
    "method": "execTransaction",
    "parameters": [
      {
        "name": "to",
        "type": "address",
        "value": "0x40A2aCCbd92BCA938b02010E17A5b8929b49130D"
      },
      {
        "name": "value",
        "type": "uint256",
        "value": "0"
      },
      {
        "name": "data",
        "type": "bytes",
        "value": "0x8d80ff0a00000000000000000000000000000000000000000000000000000000000000200000000000000000000000000000000000000000000000000000000000000099002b67fa2e781b5e43fbf314b72772adca4c78bf690000000000000000000000000000000000000000000000000000000000000000000000000000000000000000000000000000000000000000000000000000004499a88ec40000000000000000000000000dd810a6ffba6a9820a10d97b659f07d8d23d4e200000000000000000000000095c92c951d47bcd5b726e211693ef68d19f67dc000000000000000",
        "valueDecoded": {
          "method": "multiSend",
          "parameters": [
            {
              "name": "transactions",
              "type": "bytes",
              "value": "0x002b67fa2e781b5e43fbf314b72772adca4c78bf690000000000000000000000000000000000000000000000000000000000000000000000000000000000000000000000000000000000000000000000000000004499a88ec40000000000000000000000000dd810a6ffba6a9820a10d97b659f07d8d23d4e200000000000000000000000095c92c951d47bcd5b726e211693ef68d19f67dc0",
              "valueDecoded": [
                {
                  "operation": 0,
                  "to": "0x2B67FA2e781B5E43fBF314B72772adca4c78Bf69",
                  "value": "0",
                  "data": "0x99a88ec40000000000000000000000000dd810a6ffba6a9820a10d97b659f07d8d23d4e200000000000000000000000095c92c951d47bcd5b726e211693ef68d19f67dc0",
                  "dataDecoded": {
                    "method": "upgrade",
                    "parameters": [
                      {
                        "name": "proxy",
                        "type": "address",
                        "value": "0x0dd810a6ffba6a9820a10d97b659f07d8d23d4E2"
                      },
                      {
                        "name": "implementation",
                        "type": "address",
                        "value": "0x95C92c951D47bcd5b726e211693eF68d19F67DC0"
                      }
                    ]
                  }
                }
              ]
            }
          ]
        }
      },
      {
        "name": "operation",
        "type": "uint8",
        "value": "1"
      },
      {
        "name": "safeTxGas",
        "type": "uint256",
        "value": "0"
      },
      {
        "name": "baseGas",
        "type": "uint256",
        "value": "0"
      },
      {
        "name": "gasPrice",
        "type": "uint256",
        "value": "0"
      },
      {
        "name": "gasToken",
        "type": "address",
        "value": "0x0000000000000000000000000000000000000000"
      },
      {
        "name": "refundReceiver",
        "type": "address",
        "value": "0x0000000000000000000000000000000000000000"
      },
      {
        "name": "signatures",
        "type": "bytes",
        "value": "0x0000000000000000000000006f8459810197cc9fe123bbeb918451757a4fbac6000000000000000000000000000000000000000000000000000000000000000001"
      }
    ]
  },
  "confirmationsRequired": 1,
  "confirmations": [
    {
      "owner": "0xDA29BB71669f46F2a779b4b62f03644A84eE3479",
      "submissionDate": "2025-09-25T21:16:29.030290Z",
      "transactionHash": null,
      "signature": "0x696b01788373055ec0e2843b8916b29ac53cffa4da465c8430fa2db70d84322d08cb7c293a09bd7030e3c903f33862c85b791b6ec9daf5c20c3679b35a2a17801b",
      "signatureType": "EOA"
    }
  ],
  "trusted": true,
  "signatures": "0x696b01788373055ec0e2843b8916b29ac53cffa4da465c8430fa2db70d84322d08cb7c293a09bd7030e3c903f33862c85b791b6ec9daf5c20c3679b35a2a17801b"
}