{
  "safe": "0x6f8459810197cc9fE123BBeB918451757a4fBAc6",
  "to": "0x4FDA8998EC3b7d4b4A612d45FeB8fB36734470f2",
  "value": "0",
  "data": "0x6a76120200000000000000000000000040a2accbd92bca938b02010e17a5b8929b49130d0000000000000000000000000000000000000000000000000000000000000000000000000000000000000000000000000000000000000000000000000000014000000000000000000000000000000000000000000000000000000000000000010000000000000000000000000000000000000000000000000000000000000000000000000000000000000000000000000000000000000000000000000000000000000000000000000000000000000000000000000000000000000000000000000000000000000000000000000000000000000000000000000000000000000000000000000000000000000000000000000000000000000000000000000000000000000000000000000000000000000000000000000000000000000000000002c000000000000000000000000000000000000000000000000000000000000001448d80ff0a000000000000000000000000000000000000000000000000000000000000002000000000000000000000000000000000000000000000000000000000000000f2002b67fa2e781b5e43fbf314b72772adca4c78bf6900000000000000000000000000000000000000000000000000000000000000000000000000000000000000000000000000000000000000000000000000000024f2fde38b000000000000000000000000b094ba769b4976dc37fc689a76675f31bc4923b0001351c0ae90ff4a6881e2b32bda9666868abd486c00000000000000000000000000000000000000000000000000000000000000000000000000000000000000000000000000000000000000000000000000000024f2fde38b000000000000000000000000b094ba769b4976dc37fc689a76675f31bc4923b000000000000000000000000000000000000000000000000000000000000000000000000000000000000000000000000000000000000000000000000000000000000000000000000000410000000000000000000000006f8459810197cc9fe123bbeb918451757a4fbac600000000000000000000000000000000000000000000000000000000000000000100000000000000000000000000000000000000000000000000000000000000",
  "operation": 0,
  "gasToken": "0x0000000000000000000000000000000000000000",
  "safeTxGas": 0,
  "baseGas": 0,
  "gasPrice": "0",
  "refundReceiver": "0x0000000000000000000000000000000000000000",
  "nonce": 8,
  "executionDate": "2025-09-25T23:15:12Z",
  "submissionDate": "2025-09-25T23:14:06.739170Z",
  "modified": "2025-09-25T23:15:17.057805Z",
  "blockNumber": 9280058,
  "transactionHash": "0x3e404c64a66f8afa599544cb0299dbbff574d74e635fdab22857f68efab713e2",
  "safeTxHash": "0xcfc5a31fbb1f1ff0d8795becd7edca591f37eaa924835cfe276d6d972952eaec",
  "proposer": "0xDA29BB71669f46F2a779b4b62f03644A84eE3479",
  "proposedByDelegate": null,
  "executor": "0xDA29BB71669f46F2a779b4b62f03644A84eE3479",
  "isExecuted": true,
  "isSuccessful": true,
  "ethGasPrice": "1000015",
  "maxFeePerGas": "1000026",
  "maxPriorityFeePerGas": "1000000",
  "gasUsed": 101661,
  "fee": "101662524915",
  "origin": "{}",
  "dataDecoded": {
    "method": "execTransaction",
    "parameters": [
      {
        "name": "to",
        "type": "address",
        "value": "0x40A2aCCbd92BCA938b02010E17A5b8929b49130D"
      },
      {
        "name": "value",
        "type": "uint256",
        "value": "0"
      },
      {
        "name": "data",
        "type": "bytes",
        "value": "0x8d80ff0a000000000000000000000000000000000000000000000000000000000000002000000000000000000000000000000000000000000000000000000000000000f2002b67fa2e781b5e43fbf314b72772adca4c78bf6900000000000000000000000000000000000000000000000000000000000000000000000000000000000000000000000000000000000000000000000000000024f2fde38b000000000000000000000000b094ba769b4976dc37fc689a76675f31bc4923b0001351c0ae90ff4a6881e2b32bda9666868abd486c00000000000000000000000000000000000000000000000000000000000000000000000000000000000000000000000000000000000000000000000000000024f2fde38b000000000000000000000000b094ba769b4976dc37fc689a76675f31bc4923b00000000000000000000000000000",
        "valueDecoded": {
          "method": "multiSend",
          "parameters": [
            {
              "name": "transactions",
              "type": "bytes",
              "value": "0x002b67fa2e781b5e43fbf314b72772adca4c78bf6900000000000000000000000000000000000000000000000000000000000000000000000000000000000000000000000000000000000000000000000000000024f2fde38b000000000000000000000000b094ba769b4976dc37fc689a76675f31bc4923b0001351c0ae90ff4a6881e2b32bda9666868abd486c00000000000000000000000000000000000000000000000000000000000000000000000000000000000000000000000000000000000000000000000000000024f2fde38b000000000000000000000000b094ba769b4976dc37fc689a76675f31bc4923b0",
              "valueDecoded": [
                {
                  "operation": 0,
                  "to": "0x2B67FA2e781B5E43fBF314B72772adca4c78Bf69",
                  "value": "0",
                  "data": "0xf2fde38b000000000000000000000000b094ba769b4976dc37fc689a76675f31bc4923b0",
                  "dataDecoded": {
                    "method": "transferOwnership",
                    "parameters": [
                      {
                        "name": "newOwner",
                        "type": "address",
                        "value": "0xb094Ba769b4976Dc37fC689A76675f31bc4923b0"
                      }
                    ]
                  }
                },
                {
                  "operation": 0,
                  "to": "0x1351c0AE90ff4A6881E2B32bdA9666868Abd486c",
                  "value": "0",
                  "data": "0xf2fde38b000000000000000000000000b094ba769b4976dc37fc689a76675f31bc4923b0",
                  "dataDecoded": {
                    "method": "transferOwnership",
                    "parameters": [
                      {
                        "name": "newOwner",
                        "type": "address",
                        "value": "0xb094Ba769b4976Dc37fC689A76675f31bc4923b0"
                      }
                    ]
                  }
                }
              ]
            }
          ]
        }
      },
      {
        "name": "operation",
        "type": "uint8",
        "value": "1"
      },
      {
        "name": "safeTxGas",
        "type": "uint256",
        "value": "0"
      },
      {
        "name": "baseGas",
        "type": "uint256",
        "value": "0"
      },
      {
        "name": "gasPrice",
        "type": "uint256",
        "value": "0"
      },
      {
        "name": "gasToken",
        "type": "address",
        "value": "0x0000000000000000000000000000000000000000"
      },
      {
        "name": "refundReceiver",
        "type": "address",
        "value": "0x0000000000000000000000000000000000000000"
      },
      {
        "name": "signatures",
        "type": "bytes",
        "value": "0x0000000000000000000000006f8459810197cc9fe123bbeb918451757a4fbac6000000000000000000000000000000000000000000000000000000000000000001"
      }
    ]
  },
  "confirmationsRequired": 1,
  "confirmations": [
    {
      "owner": "0xDA29BB71669f46F2a779b4b62f03644A84eE3479",
      "submissionDate": "2025-09-25T23:14:06.799371Z",
      "transactionHash": null,
      "signature": "0x2e8b0bcf9582f536d05ea8c88a597b805f61669f3d571b54964ac7fdf65df66179496ae8571145d191d3d8d434a748aaa45fd4c20afbb41e5bf92ce8dd3c5de21c",
      "signatureType": "EOA"
    }
  ],
  "trusted": true,
  "signatures": "0x2e8b0bcf9582f536d05ea8c88a597b805f61669f3d571b54964ac7fdf65df66179496ae8571145d191d3d8d434a748aaa45fd4c20afbb41e5bf92ce8dd3c5de21c"
}