{
  "safe": "0xb094Ba769b4976Dc37fC689A76675f31bc4923b0",
  "to": "0x9fc6Af1d6dD9443184c9b78df6a105A7e7A85542",
  "value": "0",
  "data": "0x99a88ec4000000000000000000000000a86dc1c47cb2518327fb4f9a1627f51966c83b9200000000000000000000000089ef1267996a3a93a31d4689de15c9c6cc6612c7",
  "operation": 0,
  "gasToken": "0x0000000000000000000000000000000000000000",
  "safeTxGas": 0,
  "baseGas": 0,
  "gasPrice": "0",
  "refundReceiver": "0x0000000000000000000000000000000000000000",
  "nonce": 76,
  "executionDate": "2025-10-24T19:23:12Z",
  "submissionDate": "2025-10-24T19:20:32.836968Z",
  "modified": "2025-10-24T19:23:14.012956Z",
  "blockNumber": 9482159,
  "transactionHash": "0xb7e94036c85544893457d86947f400e08e00866e79235fc5ce5374dca4e405f5",
  "safeTxHash": "0x8d7051d4ed1b7cc3d56fb2a6001f92fe8a76a9763854b9c1183a72c8c150caa8",
  "proposer": "0xDA29BB71669f46F2a779b4b62f03644A84eE3479",
  "proposedByDelegate": null,
  "executor": "0xDA29BB71669f46F2a779b4b62f03644A84eE3479",
  "isExecuted": true,
  "isSuccessful": true,
  "ethGasPrice": "1000009",
  "maxFeePerGas": "1000018",
  "maxPriorityFeePerGas": "1000000",
  "gasUsed": 71103,
  "fee": "71103639927",
  "origin": "{}",
  "dataDecoded": {
    "method": "upgrade",
    "parameters": [
      {
        "name": "proxy",
        "type": "address",
        "value": "0xa86DC1C47cb2518327fB4f9A1627F51966c83B92"
      },
      {
        "name": "implementation",
        "type": "address",
        "value": "0x89ef1267996a3a93A31D4689dE15C9c6cc6612c7"
      }
    ]
  },
  "confirmationsRequired": 1,
  "confirmations": [
    {
      "owner": "0xDA29BB71669f46F2a779b4b62f03644A84eE3479",
      "submissionDate": "2025-10-24T19:20:32.888551Z",
      "transactionHash": null,
      "signature": "0x4a43a1f227afd98ee694754878df3fc0193a40cff6d358aa2e6d8f0e8cd0c9b775839b6488dd3e33818a93741845580c241653526d8cca41209b67ca06c64b701b",
      "signatureType": "EOA"
    }
  ],
  "trusted": true,
  "signatures": "0x4a43a1f227afd98ee694754878df3fc0193a40cff6d358aa2e6d8f0e8cd0c9b775839b6488dd3e33818a93741845580c241653526d8cca41209b67ca06c64b701b"
}