{
  "safe": "0x6f8459810197cc9fE123BBeB918451757a4fBAc6",
  "to": "0x4FDA8998EC3b7d4b4A612d45FeB8fB36734470f2",
  "value": "0",
  "data": "0x6a76120200000000000000000000000040a2accbd92bca938b02010e17a5b8929b49130d00000000000000000000000000000000000000000000000000000000000000000000000000000000000000000000000000000000000000000000000000000140000000000000000000000000000000000000000000000000000000000000000100000000000000000000000000000000000000000000000000000000000000000000000000000000000000000000000000000000000000000000000000000000000000000000000000000000000000000000000000000000000000000000000000000000000000000000000000000000000000000000000000000000000000000000000000000000000000000000000000000000000000000000000000000000000000000000000000000000000000000000000000000000000000000000026000000000000000000000000000000000000000000000000000000000000000e48d80ff0a00000000000000000000000000000000000000000000000000000000000000200000000000000000000000000000000000000000000000000000000000000099002b67fa2e781b5e43fbf314b72772adca4c78bf690000000000000000000000000000000000000000000000000000000000000000000000000000000000000000000000000000000000000000000000000000004499a88ec40000000000000000000000000dd810a6ffba6a9820a10d97b659f07d8d23d4e2000000000000000000000000c6aea3d84d38388325170ace18c124ba872ee117000000000000000000000000000000000000000000000000000000000000000000000000000000000000000000000000000000000000000000000000000000000000410000000000000000000000006f8459810197cc9fe123bbeb918451757a4fbac600000000000000000000000000000000000000000000000000000000000000000100000000000000000000000000000000000000000000000000000000000000",
  "operation": 0,
  "gasToken": "0x0000000000000000000000000000000000000000",
  "safeTxGas": 0,
  "baseGas": 0,
  "gasPrice": "0",
  "refundReceiver": "0x0000000000000000000000000000000000000000",
  "nonce": 6,
  "executionDate": null,
  "submissionDate": "2025-09-25T22:25:20.394945Z",
  "modified": "2025-09-25T22:25:20.455132Z",
  "blockNumber": null,
  "transactionHash": null,
  "safeTxHash": "0xea014f6ccb38c159c45f6ced737595f993f26f2ef54a7780a2e9f4f3c114978a",
  "proposer": "0xDA29BB71669f46F2a779b4b62f03644A84eE3479",
  "proposedByDelegate": null,
  "executor": null,
  "isExecuted": false,
  "isSuccessful": null,
  "ethGasPrice": null,
  "maxFeePerGas": null,
  "maxPriorityFeePerGas": null,
  "gasUsed": null,
  "fee": null,
  "origin": "{}",
  "dataDecoded": {
    "method": "execTransaction",
    "parameters": [
      {
        "name": "to",
        "type": "address",
        "value": "0x40A2aCCbd92BCA938b02010E17A5b8929b49130D"
      },
      {
        "name": "value",
        "type": "uint256",
        "value": "0"
      },
      {
        "name": "data",
        "type": "bytes",
        "value": "0x8d80ff0a00000000000000000000000000000000000000000000000000000000000000200000000000000000000000000000000000000000000000000000000000000099002b67fa2e781b5e43fbf314b72772adca4c78bf690000000000000000000000000000000000000000000000000000000000000000000000000000000000000000000000000000000000000000000000000000004499a88ec40000000000000000000000000dd810a6ffba6a9820a10d97b659f07d8d23d4e2000000000000000000000000c6aea3d84d38388325170ace18c124ba872ee11700000000000000",
        "valueDecoded": {
          "method": "multiSend",
          "parameters": [
            {
              "name": "transactions",
              "type": "bytes",
              "value": "0x002b67fa2e781b5e43fbf314b72772adca4c78bf690000000000000000000000000000000000000000000000000000000000000000000000000000000000000000000000000000000000000000000000000000004499a88ec40000000000000000000000000dd810a6ffba6a9820a10d97b659f07d8d23d4e2000000000000000000000000c6aea3d84d38388325170ace18c124ba872ee117",
              "valueDecoded": [
                {
                  "operation": 0,
                  "to": "0x2B67FA2e781B5E43fBF314B72772adca4c78Bf69",
                  "value": "0",
                  "data": "0x99a88ec40000000000000000000000000dd810a6ffba6a9820a10d97b659f07d8d23d4e2000000000000000000000000c6aea3d84d38388325170ace18c124ba872ee117",
                  "dataDecoded": {
                    "method": "upgrade",
                    "parameters": [
                      {
                        "name": "proxy",
                        "type": "address",
                        "value": "0x0dd810a6ffba6a9820a10d97b659f07d8d23d4E2"
                      },
                      {
                        "name": "implementation",
                        "type": "address",
                        "value": "0xc6AEA3d84D38388325170ACE18c124BA872Ee117"
                      }
                    ]
                  }
                }
              ]
            }
          ]
        }
      },
      {
        "name": "operation",
        "type": "uint8",
        "value": "1"
      },
      {
        "name": "safeTxGas",
        "type": "uint256",
        "value": "0"
      },
      {
        "name": "baseGas",
        "type": "uint256",
        "value": "0"
      },
      {
        "name": "gasPrice",
        "type": "uint256",
        "value": "0"
      },
      {
        "name": "gasToken",
        "type": "address",
        "value": "0x0000000000000000000000000000000000000000"
      },
      {
        "name": "refundReceiver",
        "type": "address",
        "value": "0x0000000000000000000000000000000000000000"
      },
      {
        "name": "signatures",
        "type": "bytes",
        "value": "0x0000000000000000000000006f8459810197cc9fe123bbeb918451757a4fbac6000000000000000000000000000000000000000000000000000000000000000001"
      }
    ]
  },
  "confirmationsRequired": 1,
  "confirmations": [
    {
      "owner": "0xDA29BB71669f46F2a779b4b62f03644A84eE3479",
      "submissionDate": "2025-09-25T22:25:20.455132Z",
      "transactionHash": null,
      "signature": "0x4d3bc424efcf9b7a40eac87cda1c2cd84fca49bc5328d7ac85537866fdabfc9967d3916aab58e42388e807357eb767f58506d625da27d101c7c047d4fd8242811c",
      "signatureType": "EOA"
    }
  ],
  "trusted": true,
  "signatures": null
}