{
  "safe": "0x6f8459810197cc9fE123BBeB918451757a4fBAc6",
  "to": "0x4FDA8998EC3b7d4b4A612d45FeB8fB36734470f2",
  "value": "0",
  "data": "0x6a76120200000000000000000000000040a2accbd92bca938b02010e17a5b8929b49130d00000000000000000000000000000000000000000000000000000000000000000000000000000000000000000000000000000000000000000000000000000140000000000000000000000000000000000000000000000000000000000000000100000000000000000000000000000000000000000000000000000000000000000000000000000000000000000000000000000000000000000000000000000000000000000000000000000000000000000000000000000000000000000000000000000000000000000000000000000000000000000000000000000000000000000000000000000000000000000000000000000000000000000000000000000000000000000000000000000000000000000000000000000000000000000000026000000000000000000000000000000000000000000000000000000000000000e48d80ff0a00000000000000000000000000000000000000000000000000000000000000200000000000000000000000000000000000000000000000000000000000000099009fc6af1d6dd9443184c9b78df6a105a7e7a855420000000000000000000000000000000000000000000000000000000000000000000000000000000000000000000000000000000000000000000000000000004499a88ec4000000000000000000000000a86dc1c47cb2518327fb4f9a1627f51966c83b92000000000000000000000000bed971e6f715e33f2fb9bede2e648952b0b6d554000000000000000000000000000000000000000000000000000000000000000000000000000000000000000000000000000000000000000000000000000000000000410000000000000000000000006f8459810197cc9fe123bbeb918451757a4fbac600000000000000000000000000000000000000000000000000000000000000000100000000000000000000000000000000000000000000000000000000000000",
  "operation": 0,
  "gasToken": "0x0000000000000000000000000000000000000000",
  "safeTxGas": 0,
  "baseGas": 0,
  "gasPrice": "0",
  "refundReceiver": "0x0000000000000000000000000000000000000000",
  "nonce": 4,
  "executionDate": "2025-09-25T21:01:24Z",
  "submissionDate": "2025-09-25T20:57:48.467886Z",
  "modified": "2025-09-25T21:01:26.862817Z",
  "blockNumber": 9279394,
  "transactionHash": "0x37b48e3a5aad173df2e9e5d1dacd0b00ee17904def4e7cfe76fdf7d6f646bbca",
  "safeTxHash": "0x22c0aeec33c6db3e6701609a78adf0f0ef80648914835dbcb62d7dd7df7a2037",
  "proposer": "0xDA29BB71669f46F2a779b4b62f03644A84eE3479",
  "proposedByDelegate": null,
  "executor": "0xDA29BB71669f46F2a779b4b62f03644A84eE3479",
  "isExecuted": true,
  "isSuccessful": true,
  "ethGasPrice": "1000015",
  "maxFeePerGas": "1000030",
  "maxPriorityFeePerGas": "1000000",
  "gasUsed": 100915,
  "fee": "100916513725",
  "origin": "{}",
  "dataDecoded": {
    "method": "execTransaction",
    "parameters": [
      {
        "name": "to",
        "type": "address",
        "value": "0x40A2aCCbd92BCA938b02010E17A5b8929b49130D"
      },
      {
        "name": "value",
        "type": "uint256",
        "value": "0"
      },
      {
        "name": "data",
        "type": "bytes",
        "value": "0x8d80ff0a00000000000000000000000000000000000000000000000000000000000000200000000000000000000000000000000000000000000000000000000000000099009fc6af1d6dd9443184c9b78df6a105a7e7a855420000000000000000000000000000000000000000000000000000000000000000000000000000000000000000000000000000000000000000000000000000004499a88ec4000000000000000000000000a86dc1c47cb2518327fb4f9a1627f51966c83b92000000000000000000000000bed971e6f715e33f2fb9bede2e648952b0b6d55400000000000000",
        "valueDecoded": {
          "method": "multiSend",
          "parameters": [
            {
              "name": "transactions",
              "type": "bytes",
              "value": "0x009fc6af1d6dd9443184c9b78df6a105a7e7a855420000000000000000000000000000000000000000000000000000000000000000000000000000000000000000000000000000000000000000000000000000004499a88ec4000000000000000000000000a86dc1c47cb2518327fb4f9a1627f51966c83b92000000000000000000000000bed971e6f715e33f2fb9bede2e648952b0b6d554",
              "valueDecoded": [
                {
                  "operation": 0,
                  "to": "0x9fc6Af1d6dD9443184c9b78df6a105A7e7A85542",
                  "value": "0",
                  "data": "0x99a88ec4000000000000000000000000a86dc1c47cb2518327fb4f9a1627f51966c83b92000000000000000000000000bed971e6f715e33f2fb9bede2e648952b0b6d554",
                  "dataDecoded": {
                    "method": "upgrade",
                    "parameters": [
                      {
                        "name": "proxy",
                        "type": "address",
                        "value": "0xa86DC1C47cb2518327fB4f9A1627F51966c83B92"
                      },
                      {
                        "name": "implementation",
                        "type": "address",
                        "value": "0xBeD971E6F715e33f2FB9BeDE2E648952B0B6d554"
                      }
                    ]
                  }
                }
              ]
            }
          ]
        }
      },
      {
        "name": "operation",
        "type": "uint8",
        "value": "1"
      },
      {
        "name": "safeTxGas",
        "type": "uint256",
        "value": "0"
      },
      {
        "name": "baseGas",
        "type": "uint256",
        "value": "0"
      },
      {
        "name": "gasPrice",
        "type": "uint256",
        "value": "0"
      },
      {
        "name": "gasToken",
        "type": "address",
        "value": "0x0000000000000000000000000000000000000000"
      },
      {
        "name": "refundReceiver",
        "type": "address",
        "value": "0x0000000000000000000000000000000000000000"
      },
      {
        "name": "signatures",
        "type": "bytes",
        "value": "0x0000000000000000000000006f8459810197cc9fe123bbeb918451757a4fbac6000000000000000000000000000000000000000000000000000000000000000001"
      }
    ]
  },
  "confirmationsRequired": 1,
  "confirmations": [
    {
      "owner": "0xDA29BB71669f46F2a779b4b62f03644A84eE3479",
      "submissionDate": "2025-09-25T20:57:48.506517Z",
      "transactionHash": null,
      "signature": "0x4114863197004efc982bf0994f7466458ac13cb334d104aae3e16aa3c074d5786bd3793e07c6c40af34b44578dc42d950d8f8ee112cd0069b1f0ecf92370fb021c",
      "signatureType": "EOA"
    }
  ],
  "trusted": true,
  "signatures": "0x4114863197004efc982bf0994f7466458ac13cb334d104aae3e16aa3c074d5786bd3793e07c6c40af34b44578dc42d950d8f8ee112cd0069b1f0ecf92370fb021c"
}